:020000040800F2
:1000000038090020890100085B240008FD21000850
:1000100059240008AF020008C92D000800000000A4
:10002000000000000000000000000000CD270008D4
:100030001D03000800000000B5250008F92700088E
:10004000A3010008A3010008A3010008A301000800
:10005000A3010008A3010008A3010008A3010008F0
:10006000A3010008A3010008A3010008A3010008E0
:10007000A3010008A3010008B1020008BD020008A6
:10008000A3010008A3010008A3010008A3010008C0
:10009000A3010008A3010008A3010008A3010008B0
:1000A000A301000855280008A3010008A3010008C7
:1000B000A3010008A3010008A3010008A301000890
:1000C000A3010008A3010008A3010008A301000880
:1000D000A3010008BD2D0008A3010008A30100082A
:1000E000A3010008A3010008A301000800F002F822
:1000F00000F03AF80AA090E8000C82448344AAF188
:100100000107DA4501D100F02FF8AFF2090EBAE885
:100110000F0013F0010F18BFFB1A43F0010318473B
:10012000884A0000A84A0000103A24BF78C878C165
:10013000FAD8520724BF30C830C144BF04680C60ED
:10014000704700000023002400250026103A28BF35
:1001500078C1FBD8520728BF30C148BF0B60704739
:100160001FB51FBD10B510BD00F06CF81146FFF7AC
:10017000F7FF03F0E1F900F08AF803B4FFF7F2FFAC
:1001800003BC00F08DF8000009488047094800478B
:10019000FEE7FEE7FEE7FEE7FEE7FEE7FEE7FEE737
:1001A000FEE7FEE704480549054A064B7047000094
:1001B00053280008ED00000838030020380900200B
:1001C00038050020380500204FF0000200B5134626
:1001D00094469646203922BFA0E80C50A0E80C5067
:1001E000B1F12001BFF4F7AF090728BFA0E80C5018
:1001F00048BF0CC05DF804EB890028BF40F8042B11
:1002000008BF704748BF20F8022B11F0804F18BF7D
:1002100000F8012B704770477047704710B500F029
:1002200009F8006810BD10B5044600F003F804603A
:1002300010BD000000487047D402002000487047FD
:10024000D40200207546FFF7F9FFAE460500694667
:10025000534620F00700854618B020B5FFF7A2FFEF
:10026000BDE820404FF000064FF000074FF00008B7
:100270004FF0000B21F00701AC46ACE8C009ACE838
:10028000C009ACE8C009ACE8C0098D46704710B59C
:100290000446AFF300802046BDE81040FFF76DBF75
:1002A00001491820ABBEFEE7260002007047FEE7BA
:1002B000014800F0D3B8000090020020014800F08F
:1002C000CDB80000FC01002030B590F8405001246A
:1002D000AC40C56B6C60046863604368102B0368B6
:1002E00003D099600068C26030BD9A600068C16048
:1002F00030BD000010B510F8271F427842EA0121F6
:100300000522C273084603F0CCFDBDE81040002270
:10031000014B03F003BC000000005940704772B667
:10032000FEE710B590F821100022022905D0042123
:10033000816380F82020012010BD01680B6823F044
:100340000E030B6001680B6823F001030B6090F84B
:100350004030C46B012101FA03F3636080F821107F
:1003600080F82020104610BD10B590F82110002410
:10037000022903D00421816301243DE001680A6859
:1003800022F00E020A6001680A6822F001020A6087
:100390001A4A0168914201D1012121E0174A143221
:1003A000914201D110211BE0144A2832914201D11F
:1003B000891515E0114A3C32914201D189140FE0B0
:1003C0000E4A5032914202D14FF4803108E00B4A7C
:1003D0006432914202D14FF4801101E04FF08071FC
:1003E000064A083A5160012180F82110002180F866
:1003F0002010416B01B18847204610BD0800024023
:1004000010B528B301680A6822F001020A60026888
:100410000021116002685160026891600268D16039
:100420000C4B026801241A441423B2FBF3F293002C
:10043000094AC0E90F239C4054608162C162016394
:100440004163816380F8211080F82010002010BDE6
:10045000012010BDF8FFFDBF000002402DE9F05F54
:10046000C16B0C6801680B68D0F840C0042202FA26
:100470000CF2494DDFF824A1494E4A4FDFF828B16C
:10048000DFF828E122422CD05A072AD50A689206C2
:1004900003D40A6822F004020A600168A94201D16B
:1004A000042219E0514501D1402215E0B14202D1A8
:1004B0004FF4806210E0B94202D14FF480420BE069
:1004C000594502D14FF4802206E0714502D14FF424
:1004D000800201E04FF080622F4908394A60C16A0A
:1004E0003BE04FF0020808FA0CF818EA040F4FF04E
:1004F00000094FF0010235D05FEA837832D50B68EE
:100500009B0605D40B6823F00A030B6080F82120BA
:100510000168A94201D1022219E0514501D12022EE
:1005200015E0B14202D14FF4007210E0B94202D19D
:100530004FF400520BE0594502D14FF4003206E06F
:10054000714502D14FF4001201E04FF000721249E0
:1005500008394A6080F82090816A00291AD0BDE8E5
:10056000F05F0847082505FA0CF5254212D01B0755
:1005700010D50B6823F00E030B6090F84010C36B8E
:1005800002FA01F15960826380F8212080F82090FE
:10059000016BE2E7BDE8F09F080002401C0002404A
:1005A0003000024044000240580002406C0002400B
:1005B00030B528B308C8134914221944B1FBF2F12D
:1005C0008900C16310498163022141771A6843F6AB
:1005D000F0718A43D0E900142143D0E902452C434D
:1005E0002143046921434469214384692143114320
:1005F000196000214163012242770177084630BD2E
:10060000012030BDF8FFFDBF0000024070B5044678
:1006100090F82000002501280CD0012084F820004B
:1006200094F821600020012E06D084F820000225D5
:10063000284670BD022070BD022684F82160A063A8
:100640002068066826F0010606602046FFF73CFE9B
:10065000E06A00282068016802D041F00E0106E03F
:1006600021F0040101602068016841F00A01016085
:100670002068016841F001010160D9E770B50446C6
:1006800000F086F90546601C02D004480078044456
:1006900000F07EF9401BA042FAD370BD7800002024
:1006A0002DE9F0430023374F0F2566E001229A40E1
:1006B0000A4060D023F00304E619D6F808809C07AE
:1006C0004FEA147C05FA0CF909EA0804DFF8B8804F
:1006D000404502D14FF0000816E0DFF8B0804045F9
:1006E00002D14FF001080FE0DFF8A480404502D1AD
:1006F0004FF0020808E0DFF89C80404502D14FF03F
:10070000030801E04FF0040808FA0CF8A04515D1E1
:10071000D6F808C02CEA090CC6F808C01E4E34688A
:1007200094433460341D266896432660241D266851
:1007300096432660241D266896432660FF2A01D82A
:10074000064601E000F104064FEA830401D9A4F152
:100750002004D6F800C005FA04F82CEA080C4FF083
:10076000040808FA04F84CEA080CC6F800C0C4688B
:1007700024EA0204C46003F1010331FA03F295D1C3
:10078000BDE8F0830000014000080140000C01407A
:100790000010014000140140000401402DE9F84F11
:1007A000DFF8B891002409F1040A0AF1040B23468A
:1007B0000F270BF1040EC9E00125A5402A40AA42EB
:1007C0007DD1674ED1F804C0ACEB0608B44532D0F9
:1007D00014DCBCF1030F3AD009DCBCF1000F2AD0C5
:1007E000BCF1010F1CD0BCF1020F31D11DE0BCF1F6
:1007F000110F17D0BCF1120F2AD119E0B8F5881FDC
:1008000019D006DCB8F5803F15D0B8F5801F1FD190
:1008100011E0B8F5001F0ED0B8F5041F18D10AE09A
:10082000CB6815E0CB681B1D12E0CB6808330FE0E6
:10083000CB680C330CE08B682BB1012B4FF0080315
:1008400003D0456104E0042302E0056100E00023D9
:10085000FF2A01D8064601E000F104064FEA8405AC
:1008600001D9A5F12005D6F8008007FA05FC28EA91
:100870000C0803FA05F548EA0508C6F800804D683B
:10088000ED0062D5374DAE6946F00106AE61AD6947
:1008900024F0030605F001050095334D06EB050C29
:1008A000DCF80850A607360F07FA06F825EA08050F
:1008B000DFF8B880404503D14FF0000817E044E06E
:1008C000DFF8AC80404502D14FF001080FE0DFF8BF
:1008D000A480404502D14FF0020808E0DFF898807C
:1008E000404502D14FF0030801E04FF0040808FA38
:1008F00006F848EA0508CCF808804D68D9F8006089
:10090000ED034D4601D5164300E096432E604D6839
:10091000DAF80060AD03554601D5164300E0964372
:100920002E604D68DBF80060ED025D4601D5164390
:1009300000E096432E604D68DEF80060AD0275461B
:1009400001D5164300E096432E60641C0D682A46CC
:10095000E5407FF431AFBDE8F88F000000040140AE
:10096000000011100010024000000140000801408A
:10097000000C014000100140001401408068084054
:1009800000D0012070470AB1016170470904FBE7FC
:1009900001488068704700007800002002488168A4
:1009A000027811448160704778000020074810B534
:1009B000016841F010010160032000F085F800207B
:1009C00000F006F800F024F8002010BD00200240DE
:1009D00070B50D4D04464FF47A712878B1FBF0F0F4
:1009E0000A490968B1FBF0F000F032FD48B9102C5B
:1009F00007D200222146501E00F046F800206C600D
:100A000070BD012070BD000078000020840000202F
:100A10000C4808B5816941F001018161816901F0EB
:100A200001010091C16941F08051C161C06900F0CC
:100A3000805000900448416821F0E06141F000716D
:100A4000416008BD001002400000014000280DDB9D
:100A500000F01F02012191404009800000F1E020D8
:100A6000C0F88011BFF34F8FBFF36F8F704700281E
:100A700009DB00F01F02012191404009800000F1D4
:100A8000E020C0F800117047F0B40E4B1B680C4614
:100A9000C3F30223C3F10705042D00D90425191D52
:100AA000072901D2002300E0DB1E012606FA05F12A
:100AB000491E214099409E40761E16403143F0BCAD
:100AC00002F0AEB90CED00E0064900F0070208683C
:100AD0004FF6FF03184040EA0220034A1043086023
:100AE000704700000CED00E00000FA052DE9F0472A
:100AF0000F46050061D0434E306800F00700B84251
:100B000009D2306820F0070038433060306800F0C8
:100B10000700B84251D128683B4C810712D54007E5
:100B200003D5606840F4E06060602878000703D572
:100B3000606840F4605060606068A96820F0F00070
:100B4000084360602878C00728D06868012810D062
:100B50002168022810D0890700292EDA616821F067
:100B6000030101436160FFF713FF804641F28839BA
:100B70000DE021688903EFE78901EDE7FFF708FF42
:100B8000A0EB0801494502D90320BDE8F087606861
:100B9000696800F00C00B0EB810FEFD1306800F015
:100BA0000700B8420BD9306820F0070038433060A6
:100BB000306800F00700B84201D00120E5E728784E
:100BC000400705D56068E96820F4E060084360608C
:100BD0002878000706D56068296920F4605040EA4B
:100BE000C100606000F038F86168084AC1F3031181
:100BF000515CC8400649086006480068FFF7E8FEF7
:100C00000020C2E700200240001002404A4B0008CA
:100C1000840000207C0000200448054900684968E1
:100C2000044AC1F30221515CC8407047840000208F
:100C3000001002405A4B0008044805490068496802
:100C4000044AC1F3C221515CC840704784000020AF
:100C5000001002405A4B000812A185B00FC98DE860
:100C60000F0014A0144A006804905168134801F062
:100C70000C03042B10D0082B0ED1C1F38343C903FE
:100C80001DF803000AD5516804AAC1F34041515C24
:100C90000A4A5043B0FBF1F005B070470849484399
:100CA000FAE7000002030405060708090A0B0C0D09
:100CB0000E0F1010010200000010024000127A0016
:100CC00000093D002DE9F84F040070D02078C04D98
:100CD000C00749D06868C0F38100012807D0686860
:100CE000C0F38100022809D16868C00306D52868CE
:100CF000800339D560680028E7D035E06068B0F53A
:100D0000803F0BD010B1B0F5A02F11D0286820F48F
:100D100080302860286820F4802002E0286840F4B1
:100D200080302860606890B1FFF732FE06460AE026
:100D3000286840F480202860F0E700BFFFF728FE15
:100D4000801B642873D828688003F7D50CE0FFF770
:100D50001FFE064605E000BFFFF71AFE801B642851
:100D6000F0D828688003F7D420789A4E80074FF097
:100D700001094FF0000839D5686810F00C0F07D052
:100D80006868C0F38100022809D16868C00306D4EE
:100D90002868800714D52069012808D110E020694F
:100DA000B0B1C6F80090FFF7F3FD074605E00AE191
:100DB000FFF7EEFDC01B0228C4D828688007F7D5CE
:100DC0002868616920F0F80040EAC10028600DE061
:100DD000C6F80080FFF7DCFD074604E0FFF7D8FD0A
:100DE000C01B022823D828688007F7D42078000782
:100DF0002CD57948A169D9B1C0F80090FFF7C8FD9A
:100E0000074604E0FFF7C4FDC01B02280FD8686A3C
:100E10008007F7D571484FF4FA510068B0FBF1F044
:100E2000009000BF0098411E0091FAD20EE080E0D1
:100E3000C0F80080FFF7ACFD074604E0FFF7A8FD0F
:100E4000C01B022875D8686A8007F7D4207840074D
:100E500060D5E8690027C00008D4E86940F08050F8
:100E6000E861E869012700F0805000905C48016863
:100E7000C90513D40168834641F480710160FFF70E
:100E800087FD824606E000BFFFF782FDA0EB0A0067
:100E900064284ED8DBF80000C005F5D5E0680128CD
:100EA0000AD008B1052813D0286A20F00100286272
:100EB000286A20F0040002E0286A40F0010028625D
:100EC000E06841F2883B98B1FFF762FD82460BE093
:100ED000286A40F004002862EEE700BFFFF758FDE3
:100EE000A0EB0A0159455AD8286A8007F6D50CE0CC
:100EF000FFF74EFD824605E0FFF74AFDA0EB0A0131
:100F000059454CD8286A8007F6D41FB1E86920F00B
:100F10008050E861E06988B36968C1F38101022902
:100F200044D00228C6F8608004D0FFF731FD0446A3
:100F300038E034E0FFF72CFD074604E0FFF728FD1A
:100F4000C01B02282BD828688001F7D4206AB0F58E
:100F5000803F05D16868A16820F4003008436860CC
:100F6000D4E908010843696821F4741108436860F2
:100F7000C6F86090FFF70CFD044606E025E000BFD0
:100F8000FFF706FD001B022809D828688001F7D565
:100F90001BE000BFFFF7FCFC001B022802D9032066
:100FA000BDE8F88F28688001F4D40EE00128F7D05E
:100FB0006868226A00F48031914204D1616A00F4C9
:100FC0007010884201D00120EAE70020E8E7000025
:100FD000001002400000424280044242840000208F
:100FE0000070004070B5040009D0606A002540B16F
:100FF00025616561A56294F8510040B10CE00120C3
:1010000070BD6068B0F5827FF4D0E561F2E784F8E6
:101010005050204600F040F8022084F8510020682B
:10102000016821F040010160A088218900F48270EC
:1010300001F404410843A18901F400610843217CC3
:1010400001F002010843217D01F001010843218BD9
:1010500001F400710843217F01F03801084394F83E
:10106000201001F080010843218D01F40051084354
:1010700021680860A069042101EA104021684860E5
:101080002068C16921F40061C1616565012084F8AF
:101090005100002070BD000030B585B000240094E0
:1010A00001940294039400681449884223D114489F
:1010B000816941F480518161816901F48051049119
:1010C000816941F00401816180690E4D00F00400E6
:1010D0000490A02000900220019003200390694614
:1010E0002846FFF75BFB4020CDE90004694628460F
:1010F0000294FFF753FB05B030BD00000030014003
:1011000000100240000801402DE9F84F044690F815
:10111000500000271D461646894601280DD04FF085
:10112000010B84F850B0FFF733FC804694F851006F
:10113000BA46012804D0022793E00220BDE8F88FC8
:10114000B9F1000F73D0002E71D0032084F8510044
:10115000C4F854A0C4F83090A686E686C4F838A037
:10116000A4F83CA0A4F83EA0C4F844A0C4F840A051
:10117000A068B0F5004F09D12068016821F0400156
:1011800001602068016841F48041016020680168C5
:10119000490603D4016841F040010160E068B0F500
:1011A000006F606803D030B3012E24D041E008B155
:1011B000012E1CD1206B21680088C86006E02068E1
:1011C0008168890709D5216B0988C160206B801C63
:1011D0002063E08E401EE08609E0FFF7D9FBA0EB1C
:1011E0000800A84202D3681C01D031E07DB3E08E34
:1011F0000028E4D120E0206B21680078087306E025
:1012000020688168890709D5216B09780173206BF3
:10121000401C2063E08E401EE0860AE0FFF7B8FB2A
:10122000A0EB0800A84203D3681C02D010E017E02E
:101230006DB1E08E0028E3D142462946204601F0F8
:1012400059FA08B120206065A06818B106E0FFE7F0
:10125000032706E02068C16880680090606D00B1D7
:10126000012784F851B084F850A0384666E72DE98C
:10127000F84F044690F8500000270A9E1D469246FB
:101280008B464FF0010901280ED0012084F8500050
:10129000FFF77EFB804694F85100616801280CD06E
:1012A000B1F5827F07D102E00220BDE8F88FA16886
:1012B00009B9042801D00227C2E0BBF1000F27D0F2
:1012C000BAF1000F24D01DB394F85100042802D0C5
:1012D000052084F8510000206065C4F838A0E58737
:1012E000A587C4F830B0E586A586206460642068D0
:1012F0000168490603D4016841F040010160E068DB
:10130000B0F5006F606805D0E8B3012D46D07FE0EE
:10131000012795E008B1012D39D1206B21680088A3
:10132000C860206B801C2063E08E401EE0862EE0AB
:101330002068816889070FD5E18E69B1B9F1010F85
:101340000AD1216B0988C160206B801C2063E08E6C
:10135000401EE0864FF0000920688168C9070CD064
:10136000E18F51B1C068A16B0880A06B801CA063A5
:10137000E08F401EE0874FF00109FFF709FBA0EB6B
:101380000800B04200E009E001D3701C50D1E08EAB
:101390000028CDD1E08F0028CAD13FE0206B216822
:1013A00000780873206B401C2063E08E401EE086AE
:1013B0002EE02068816889070FD5E18E69B1B9F107
:1013C000010F0AD1216B09780173206B401C206347
:1013D000E08E401EE0864FF0000920688168C90752
:1013E0000CD0E18F51B1C068A16B0870A06B401C9C
:1013F000A063E08F401EE0874FF00109FFF7C8FAB5
:10140000A0EB0800B04202D3701C01D010E07EB106
:10141000E08E0028CDD1E08F0028CAD14246314667
:10142000204601F067F928B101272020606507E018
:10143000032705E0A06818B92068C168806800909B
:10144000012084F85100002084F8500038462CE731
:1014500010B5401EB0F1807F01D3012010BD4FF0C8
:10146000E02460610F21601701F0DAFC0020A06128
:1014700007202061002010BD7047704770B590F8BC
:101480003C20012A26D0012480F83C40022280F82A
:101490003D2003685A689D6822F070060A6832434E
:1014A0005A600D4B02689A4208D0B2F1804F05D0C5
:1014B0000A4B9A4202D00A4B9A4204D1496825F05D
:1014C00080031943916080F83D40002180F83C1072
:1014D000084670BD022070BD002C01400004004091
:1014E0000008004010B5040003D094F83D0010B18E
:1014F00007E0012010BD002084F83C00204600F0E9
:101500001FF8022084F83D00211D206801F0A8F991
:10151000012084F8460084F83E0084F83F0084F8F7
:10152000400084F8410084F8420084F8430084F8C5
:10153000440084F8450084F83D00002010BD000000
:1015400008B500680B49884212D10B48816941F403
:10155000006181618069002200F400600090022136
:101560001920FFF791FABDE808401920FFF77FBA6C
:1015700008BD0000002C01400010024090F83D1012
:10158000012901D001207047022180F83D10016837
:10159000CA6842F00102CA6000680B49884208D05C
:1015A000B0F1804F05D00949884202D008498842ED
:1015B00004D1816801F00701062903D0016841F0D8
:1015C0000101016000207047002C01400004004030
:1015D0000008004070B5044690F83C00012817D080
:1015E000012584F83C50022084F83D002068826880
:1015F00022F0770222F47F4282600868502830D0BF
:101600000DDC20284DD005DC98B310283BD148E0F4
:10161000022070BD302844D0402834D139E0602801
:1016200028D0702806D0B0F5805F2CD0B0F5005FD0
:1016300029D10AE0CB68D1E90121206801F053F9F2
:101640002068816841F0770109E0CB68D1E9012188
:10165000206801F048F92068816841F48041816088
:1016600011E0CA684968206801F0F2F95021206849
:1016700007E016E0CA684968206801F0FAF96021BD
:10168000206801F03AF984F83D50002084F83C00CD
:1016900070BDCA684968206801F0DAF94021206805
:1016A000EFE7226801461046EBE7704770B5044645
:1016B000006801694FF00005C943890715D4C16866
:1016C000C943890711D4E91E0161012020772068F0
:1016D00080698007204602D0FFF7E7FF04E000F0B2
:1016E000F9F8204600F0A6F9257720680169C9437A
:1016F000490717D4C168C943490713D46FF00401DF
:101700000161022020772068806910F4407F204624
:1017100002D0FFF7CAFF04E000F0DCF8204600F03A
:1017200089F9257720680169C943090716D4C1687A
:10173000C943090712D46FF0080101610420207722
:101740002068C0698007204602D0FFF7AEFF04E0A2
:1017500000F0C0F8204600F06DF925772068016997
:10176000C943C90617D4C168C943C90613D46FF069
:1017700010010161082020772068C06910F4407FC3
:10178000204602D0FFF791FF04E000F0A3F82046C6
:1017900000F050F9257720680169C943C90708D1CD
:1017A000C168C943C90704D1891E0161204600F000
:1017B00091F920680169C943090609D4C168C94380
:1017C000090605D46FF0800101612046FFF754FE41
:1017D00020680169C943490609D4C168C94349065B
:1017E00005D46FF040010161204600F087FA2068BF
:1017F0000169C94389060BD4C168C943890607D466
:101800006FF0200101612046BDE87040FFF735BE52
:1018100070BD000070B586B0002100910191029169
:101820000391006826490224264E274DB0F1804FCF
:101830001CD0264A904217D1886940F00800886180
:101840008869694600F0080004901020CDE9000482
:1018500030460394FEF7A2FF686820F4406040F031
:10186000E06040F40060686006B070BD886940F0D8
:1018700004008861886900F004000490886940F0E1
:10188000080088618869694600F00800049001201A
:10189000CDE900040E480394FEF780FF4FF480600A
:1018A000CDE90004694630460394FEF777FF686887
:1018B00020F4407040F0E06040F40070D3E7000096
:1018C00000100240000C01400000014000040040F4
:1018D00000080140704770B5044690F83C000D4682
:1018E00001280AD0012084F83C0042B1042A18D013
:1018F000082A2AD00C2A4DD139E0022070BD206878
:1019000001F004F82068816941F0080181612068D4
:10191000816921F004018161206881692A6911438C
:1019200011E0206801F01AF82068816941F4006133
:1019300081612068816921F4806181612068816909
:101940002A6941EA0221816124E0206801F032F82D
:101950002068C16941F00801C1612068C16921F0B6
:101960000401C1612068C1692A69114311E020683E
:1019700001F04CF82068C16941F40061C161206840
:10198000C16921F48061C1612068C1692A6941EAA5
:101990000221C161002084F83C0070BD10B5040034
:1019A00003D094F83D0010B107E0012010BD0020E5
:1019B00084F83C00204600F01FF8022084F83D0027
:1019C000211D206800F04CFF012084F8460084F8B7
:1019D0003E0084F83F0084F8400084F8410084F819
:1019E000420084F8430084F8440084F8450084F8F9
:1019F0003D00002010BD000008B501680B48B1F1A2
:101A0000804F0BD00A4A914207D1C16941F00201CF
:101A1000C161C06900F00200009008BDC16941F0D9
:101A20000101C161C06900F00100F5E7001002404A
:101A3000000400407047000010B50446022249B17E
:101A400004290ED0082913D094F84100012816D09B
:101A5000012010BD94F83E000128F9D184F83E2001
:101A60000FE094F83F000128F2D184F83F2008E00D
:101A700094F840000128EBD184F8402001E084F87C
:101A800041200122206800F021FF0F492068884290
:101A900003D1426C42F4004242642068884208D07C
:101AA000B0F1804F05D00949884202D008498842E8
:101AB00004D1816801F00701062903D0016841F0D3
:101AC00001010160002010BD002C01400004004015
:101AD000000800402DE9F041844901F5DC7001F077
:101AE0003FFE834801F058FA824D814C1834A860BB
:101AF000207CA4F5987760B100F0B0FC607C28B140
:101B0000A07C30B939682888C86302E03968288821
:101B1000486394F83520DFF8D88106260521002097
:101B200008F141080A2A77D2DFE802F01035556043
:101B30006B4905B2779694F83600012805D06C48B9
:101B4000183001F049FB84F83600C1E094F8360003
:101B500001281AD014F8270F617841EA002002F01A
:101B6000E9FD654902F008FD614A44F8230C01468D
:101B7000D03A02F1E80001F083FEE0735C48A96806
:101B8000183001F017FEA67377E00021584818308E
:101B900001F010FE71E094F83600012877D0544926
:101BA000D03901F1E80001F0C7FE84F83600504852
:101BB00035341830A96801F0FDFD26705DE094F819
:101BC0003600012863D04A48183000F001FE01F0C9
:101BD000B7FE68604AE094F83600012878D044489F
:101BE000183000F0D3FCC5E904013FE094F836005A
:101BF00001286DD03E48183000F002FBC5E908010D
:101C000034E094F83600012862D039481830FEF7E5
:101C100071FBC5E9060129E066E094F83620012A47
:101C200024D0627CB2B1002262740022C5E9122283
:101C3000C5E916222880C5E91822C5E91A22C5E996
:101C40001C22C5E91022C5E90E22C5E90C22C5E90E
:101C5000142209E00122E7E794F83600012805D0B4
:101C6000A07C90B10020A07484F836102048A968A8
:101C7000183001F09FFD84F835604146BDE8F04121
:101C80001B480C22883800F077BA0120EBE71FE0F0
:101C900094F83620012A1BD0227C12B32074002233
:101CA000C5E91222C5E916222880C5E91822C5E92E
:101CB0001A22C5E91C22C5E91022C5E90E22C5E990
:101CC0000C22C5E914223A685063A27C12B103E0E9
:101CD000A9685BE73A68D06384F8356084F8361009
:101CE000F6E701202074F7E7BDE8F08188000020C6
:101CF00040020020000000200000C842704738B5B4
:101D0000044690F83E0020281CD181B17AB194F8A5
:101D10003C00012816D0012084F83C0020632046B6
:101D200001F014F8002803D1216B012901D0012012
:101D300038BD21680A684A680092CA6842F01002F9
:101D4000CA6038BD022038BD10B50B4C2046E1609A
:101D500001F0AAFC84F8360004F113011422A1F169
:101D6000B300FFF7CCFFA4F15C000068016821F02C
:101D70000401016010BD00005802002010B50400ED
:101D800014D0242084F83D002068C16821F400515B
:101D9000C160204600F05EF90020206484F83D0018
:101DA00084F83E0044F8300F207310BD012010BDB0
:101DB0000B4910B5884212D10846FFF7DFFF0848EB
:101DC00000F016F906491422B3310548FFF797FFD2
:101DD000034844300068016821F00401016010BD2F
:101DE000B8010020F8B5026804461068D16853694C
:101DF00010F00F0F4FF0000553D003F0010601F46F
:101E0000907737435FD0C20705D0CA0503D5226C4F
:101E100042F001022264420705D5DA0703D0226CA2
:101E200042F002022264820705D5DA0703D0226C51
:101E300042F004022264020707D501F02002324377
:101E400003D0226C42F008022264226C002A34D0B3
:101E5000800604D5880602D5204600F0C0FE206822
:101E60004069216CC0F38010090700D430B32046CC
:101E700000F094FE2068416949061BD5416921F0B4
:101E800040014161A06BA8B158494163A06BFEF7C6
:101E90006BFA002811D0A06B416B01B0BDE8F04097
:101EA000084783060FD58B060DD52046BDE8F840C0
:101EB00000F095BE2046FFF77BFFF8BD2046FFF7F8
:101EC00077FF2564F8BD266B2023012E52D1C6066C
:101ED00050D5CE064ED51068506800905069400627
:101EE0002AD5A16B086840680004000CEAD0A68DD2
:101EF0008642E7D9E0858869202818D0D06820F488
:101F00008070D0602068416921F001014161206842
:101F1000416921F04001416184F83E302563206829
:101F2000C16821F01001C160A06BFEF7FAF9A08D25
:101F3000E18D401A81B219E0A08DE18D401A81B285
:101F4000E08D0028BED00029BCD0D06820F490706D
:101F5000D0602068426922F00102426184F83E307C
:101F600025632068C26822F01002C2602046FFF795
:101F7000EBFEF8BD05062BD50D0629D594F83D00DE
:101F80002128F6D1A068B0F5805F01D12069B0B1F9
:101F9000206A411C2162216800784860E08C401E64
:101FA0000004000CE084E4D12068C16821F08001C5
:101FB000C1602068C16841F04001C160F8BD206A7D
:101FC0000088C0F308005060206A801C2062E5E7AA
:101FD0004006F3D54806F1D5D168204621F04001EE
:101FE000D16084F83D3000F007F9F8BD972A000869
:101FF00070B5040004D094F83D00002510B106E04F
:10200000012070BD84F83C50204600F045F82420A3
:1020100084F83D002068C16821F40051C160204669
:1020200000F038FE2068016921F4904101612068C8
:10203000416921F02A0141612068C16841F40051E1
:10204000C1602564202084F83D0084F83E00002013
:1020500070BD000010B5044600680C49884214D1D8
:102060000B48816921F4804181614FF4C0610948C6
:10207000FEF716FBA06BFEF7C3F9606BFEF7C0F925
:10208000BDE810402520FEF7E1BC10BD003801403E
:102090000010024000080140F0B585B0002406465B
:1020A000009401940294039400682C49884252D110
:1020B0002B48816941F480418161816901F480414B
:1020C0000491816941F0040181618069254D00F02E
:1020D000040004904FF4007000900220019003204F
:1020E000039069462846FEF759FB2815CDE9000400
:1020F000694628460294FEF751FB1C4D1A4880277A
:10210000C5E90004C5E902472C616C61AC61284651
:10211000EC61FEF74DFA08B1FEF701F9B5636E62A6
:102120001148134D143801C5102091C5104845F8C9
:1021300010496C61AC61EC61FEF73AFA08B1FEF748
:10214000EEF875630022012125206E62FEF79CFCEB
:102150002520FEF78CFC05B0F0BD000000380140E2
:10216000001002400008014058000240FC0100201D
:10217000900200207047704770B5044690F83D000B
:10218000202830D169B362B394F83C0001282AD0EA
:10219000012084F83C002162A284E28400252564A9
:1021A000212084F83D00636B10489862636B1048EF
:1021B000D862636B0F481863606B134645632668EB
:1021C000606B321DFEF722FA21686FF04000086054
:1021D00084F83C502068416941F080014161002051
:1021E00070BD012070BD022070BD0000652B00088D
:1021F000932B0008A72A000870477047FEE70000ED
:1022000010B510F8271F427842EA01210522C27357
:10221000084601F046FEBDE810400022014B01F0E7
:102220007DBC0000000059402DE9F04186B000243B
:1022300020480094019402940394816941F00401C0
:102240008161816901F004010491816941F0080113
:1022500081618069184F00F008000490002212216B
:102260003846FEF790FBDFF85480002220214046DC
:10227000FEF789FB122001250226CDE90005CDE9F4
:10228000024669463846FEF789FA0820CDE900047F
:10229000694638460294FEF781FA2020CDE9000510
:1022A000CDE9024669464046FEF778FA06B0BDE839
:1022B000F08100000010024000080140000C0140C5
:1022C0000E4810B50C4901604FF482714160002145
:1022D00081600122C160C0E904125202C0E90621F6
:1022E0000162416281620A21C162FEF77BFE002821
:1022F00001D072B6FEE710BD00300140880000201A
:1023000010B586B0002417480094019402940394F9
:10231000049413490594C0E9001443F67F61C0E9B1
:102320000241046144618461FFF7DCF808B172B6D0
:10233000FEE74FF48050009069460A48FFF74AF9DB
:1023400008B172B6FEE7049404A906480594FFF7A5
:1023500095F8002801D072B6FEE706B010BD000067
:10236000002C0140E000002010B58AB00024079442
:102370001C2168460894FDF727FF1A484FF080415A
:1023800001600421C0E9011440F69F71C0E9031403
:102390008461FFF703FB08B172B6FEE7079407A953
:1023A00010480894FFF76AF808B172B6FEE760209B
:1023B000CDE900040294002269460A480494FFF71C
:1023C0008AFA08B172B6FEE7082269460548FFF7A7
:1023D00082FA08B172B6FEE70248FFF71BFA0AB0AC
:1023E00010BD00002801002010B58AB00024079419
:1023F0001C2168460894FDF7E7FE16481449016061
:10240000A021C0E9011440F6B831C0E90314846189
:10241000FFF7C4FA08B172B6FEE7079407A90D48A2
:102420000894FFF72BF808B172B6FEE76020CDE9FB
:10243000000402940022694606480494FFF74BFA10
:1024400008B172B6FEE70348FFF7E4F90AB010BD21
:102450000004004070010020FEE7FEE72DE9F84F80
:10246000484CE0680A2874DDD4E9010102F05AFA08
:1024700001F0EEFF05460E46C4E90C01D4E9040163
:102480002A46334601F060FDC4E918018B460090EE
:10249000D4E908012A46334601F056FDD4E90A235F
:1024A00090469A4601F050FDD4E91A2301F07AFAD9
:1024B000C4E91A01D4E90E2381460F462846314665
:1024C00001F0DCFED4E9062301F03EFD424653460E
:1024D00001F024FBC4E91C0105460E464A463B4672
:1024E0005946009801F05EFA2A46334601F05AFA3E
:1024F00000221346C4E9120101F0EAFC18D20026BA
:10250000C4E91266C4E9166635463046314601F024
:10251000B5F901F097FC2080D4E90E01C4E910015F
:10252000D4E90C01C4E90E01C4E91465BDE8F88FD3
:10253000154FD4E9120100223B4601F003FE09D2F7
:1025400000253E46C4E91256C4E9165628463946C7
:1025500004E013E0D4E9120105460E4601F08EF9BD
:1025600001F070FC2080D4E90E01C4E91001D4E927
:102570000C01C4E90E01C4E91456D7E7401CE06021
:10258000D4E7000000000020003EAF4010B510F876
:10259000271F427842EA01210522C273084601F052
:1025A00080FCBDE810400022014B01F0B7BA0000EA
:1025B00000005940704700007FB50D46202141EAD8
:1025C00080008DF80800FF208DF80C000020124CD0
:1025D0008DF80400024610212046FEF7D4F90520AC
:1025E000FEF74CF86423012202A92846FEF78CFD71
:1025F00064200090012301AA03A92846FEF737FEB4
:102600000520FEF73BF8012210212046FEF7BBF91A
:102610009DF8040004B070BD000801402DE9FE43A0
:102620008046FF201A4E8DF8080001AC00250821D5
:102630003046FEF7A3F938BB002210213046FEF7E2
:10264000A2F96420FEF71AF864270123224602A9A2
:1026500040460097FEF70BFE641C6D1C032DF4DB57
:102660006420FEF70BF8012210213046FEF78BF9AB
:102670009DF804009DF8051041EA00209DF8061021
:1026800041EA0020000205122846BDE8FE83000052
:102690000008014038B504460620154D8DF80000AD
:1026A000002210212846FEF76EF96420FDF7E6FFB0
:1026B000012210212846FEF766F96420FDF7DEFFAF
:1026C000002210212846FEF75EF96420FDF7D6FFB0
:1026D0006423012269462046FEF716FD6420FDF7BB
:1026E000CDFF012210212846FEF74DF938BD00002C
:1026F0000008014038B50B460092044600228021B4
:1027000000F008F8002804D0606D40F020006065FB
:10271000032038BD2DE9F8431E46914688460446FD
:10272000089DFEF735F9401B351AFEF731F90746CB
:1027300025480068C0F3CB30684338E0701C37D0C0
:10274000FEF726F9C01BA84203D215B1009860B36A
:102750002CE02068416821F0E00141606068B0F53C
:10276000827F0BD1A068B0F5004F02D0B0F5806F2A
:1027700004D12068016821F040010160A06AB0F531
:10278000005F09D12068016821F4005101602068D0
:10279000016841F400510160012084F851000020DB
:1027A00084F850000320BDE8F8830025401E009007
:1027B0002068816838EA010004D000214945BDD174
:1027C0000020F0E70121F9E78400002070470000B5
:1027D00010B510F8271F427842EA01210522C27382
:1027E000084601F05EFBBDE810400022014B01F0FD
:1027F00095B9000000005940FEF7D0B830B58FB051
:1028000028216846FDF7E0FC14210AA8FDF7DCFC4E
:102810000225012004900095102005900024C0039B
:10282000CDE9084007956846FEF74CFA08B172B644
:10283000FEE70F200A90CDE90B540D9400210AA861
:102840000E94FEF753F9002801D072B6FEE70FB0E0
:1028500030BD70470148FEF729BF0000E0000020AE
:10286000F0B50268164B174C174D4FF08047984251
:1028700005D0B84203D0A04201D0A84203D122F033
:1028800070064A683243984205D0B84203D0A0424D
:1028900001D0A84203D122F44074CA6822434C6993
:1028A00022F08002224302608A68C2620A68826261
:1028B000984201D10969016301214161F0BD000025
:1028C000002C0140000400400008004010B501F059
:1028D0001F030121046A99408C430462016A9A40F3
:1028E0001143016210BD10B5846842EA032224F44A
:1028F0007F440A432243826010BD826822F0700246
:102900000A4342F0070181607047000030B5026A57
:1029100022F001020262026A4368846924F07305AE
:102920000C682C4322F002058A682A430A4DA8420B
:102930000BD122F00805CA6823F440732A434D697D
:1029400022F004021D438B692B4343608461496874
:102950004163026230BD0000002C014030B5026AC4
:1029600022F010020262026A436884690D6824F44E
:10297000E64444EA05248D6822F0200242EA05126A
:102980000B4DA8420ED1CD6822F0800242EA05121A
:102990004D6923F4406343EA85038D6922F04002C8
:1029A00043EA85034360846149688163026230BD04
:1029B000002C014030B5026A22F480720262036A80
:1029C0004268C46923F4007324F073050C682C4337
:1029D0008D6843EA05230C4DA8420ED1CD6823F43F
:1029E000006343EA05234D6922F4405242EA05128E
:1029F0008D6923F4806342EA05124260C46149682C
:102A0000C163036230BD0000002C014030B5026A92
:102A100022F480520262046A4268C3690D6823F49A
:102A2000E64343EA05238D6824F4005444EA053460
:102A3000064DA84204D14D6922F4804242EA851233
:102A40004260C36149680164046230BD002C0140EA
:102A500010B5036A046A24F001040462846924F056
:102A6000F00444EA021423F00A020A438461026279
:102A700010BD10B5036A23F0100303628369046A72
:102A800023F4704343EA023224F0A00343EA011125
:102A90008261016210BD10B5406A0021C185C18408
:102AA000FFF786F910BD70B5446A2068406994F854
:102AB0003D10C0F3C0100025212904D118B1E584D0
:102AC000204600F083F82068406994F83E10C0F377
:102AD0008010222904D118B1E585204600F05EF867
:102AE000206C40F0100020642046FFF761F970BDB3
:102AF00010B50146406A0968096889061BD400219F
:102B0000C1850168CA6822F48072CA6001684A6996
:102B100022F001024A6101684A6922F040024A61DA
:102B2000202180F83E10016B012904D10168CA6898
:102B300022F01002CA60016B012902D0FFF71AFBD4
:102B400010BD818DFFF700F910BD10B5406A016B13
:102B5000012902D0FFF70FFB10BD818D4908FFF757
:102B6000F3F810BD10B50146406A09680968890686
:102B70000CD40021C18401684A6922F080024A61B4
:102B80000068C16841F04001C16010BDFFF734FB2F
:102B900010BD10B5406AFFF730FB10BD0168CA6870
:102BA00022F49072CA6001684A6922F001024A6107
:102BB000016B012904D10168CA6822F01002CA60C1
:102BC000202180F83E100021016370470168CA6827
:102BD00022F0C002CA60202180F83D10704708B57D
:102BE00090F83E10222901D0022008BD82684FF4DF
:102BF00080539A4201D1016921B1816A9A421BD066
:102C00004AB10AE00268816A5268C2F308020A8087
:102C1000816A891C08E0026972B10268526802F098
:102C20007F020A70816A491C8162C18D491E0904B4
:102C3000090CC18503D019E002685268F1E7016808
:102C4000CA6822F02002CA600168CA6822F4807251
:102C5000CA6001684A6922F001024A61202180F8B5
:102C60003E10016B012903D0FFF784FA002008BD54
:102C7000002101630168CA6822F01002CA6001687D
:102C80000A68D20602D50A6849680091818DFFF76B
:102C90005BF8EBE770B5044600680169E26821F46F
:102CA0004051114301612169A068084361690843EB
:102CB0002168CA6841F20C639A430243CA602068E3
:102CC0004169A26921F44071114341611E492068A4
:102CD000884202D1FDF7B0FF01E0FDF79DFF00EB58
:102CE000C00101EB0012606864218000B2FBF0F3C8
:102CF000B3FBF1F36FF018067343B2FBF0F5B2FBD0
:102D0000F0F605EB8305322303EB0515B5FBF1F572
:102D1000B6FBF1F605F0F00505EB0615B2FBF0F693
:102D2000B2FBF0F0B0FBF1F06FF01802504306EB8D
:102D3000800003EB0010B0FBF1F0216800F00F0001
:102D40002844886070BD00000038014038B58162B9
:102D500082850025134604460564222084F83E003F
:102D6000A26B13489062A26B1248D062A26B124809
:102D70001063A06B0A4645632168A06B091DFDF72F
:102D800045FC206801684168009184F83C50C168A6
:102D900041F48071C1602068416941F001014161E5
:102DA0002068416941F040014161002038BD0000C8
:102DB000F12A00084B2B0008A72A00080148FFF75A
:102DC00011B80000B8010020FEE7000037B540212F
:102DD00082B041EA8000114C15468DF800000022B7
:102DE00010212046FDF7CFFD0520FDF747FC6423A9
:102DF000012269462846FEF787F96423012203A9C8
:102E00002846FEF781F90520FDF738FC0122102144
:102E10002046FDF7B8FD05B030BD000000080140B8
:102E20000907090E002804DB00F1E02080F80014F7
:102E3000704700F00F0000F1E02080F8141D70478B
:102E40002DE9F0414F1E00EBC7010446D1E9000116
:102E500015461E4637F006020DD02A46334601F0CD
:102E600073F87F1E04EBC703D3E9002300F09AFD3B
:102E700037F00602F1D1022F25D0042F13D0062FF0
:102E800018BFBDE8F0812A46334601F05DF8D4E969
:102E90000A2300F087FD2A46334601F055F8D4E9AD
:102EA000082300F07FFD2A46334601F04DF8D4E9AF
:102EB000062300F077FD2A46334601F045F8D4E9B1
:102EC000042300F06FFD2A46334601F03DF8D4E9B3
:102ED000022300F067FD2A46334601F035F8D4E9B5
:102EE0000023BDE8F04100F05DBD00000022134664
:102EF0001046014900F012BE0000F03F012201F02F
:102F0000B8BD002213461046114600F007BE00006F
:102F100070B504460D466420FDF7B0FB1D4E00223F
:102F200010213046FDF72FFD2A4604210120FFF72E
:102F30004DFF2A4611210220FFF748FF2A46802133
:102F40000320FFF743FF2A4660210020FFF73EFFE2
:102F50006420FDF793FB29460020FFF72DFB20702E
:102F600029460120FFF728FB607029460220FFF761
:102F700023FBA07029460320FFF71EFBE07001220F
:102F800010213046FDF7FFFCBDE870406420FDF7DE
:102F900075BB0000000801402DE9F04705690446B3
:102FA0002846384EDFF8E090DFF8E0A001F050FA54
:102FB000B54229DA00F012F906468846206901F088
:102FC00047FA00F00BF907460D46206901F040FA78
:102FD00000F004F93A462B4600F0B6FF324643466D
:102FE00000F0B2FF2A4A2B4B00F0AEFF06460D461A
:102FF000206901F02DFA00F0F1F8274A274B00F084
:10300000A3FF274A274B28E000F0E8F880460E4649
:10301000206901F01DFA00F0E1F807460D4620692D
:1030200001F016FA00F0DAF83A462B4600F08CFF71
:103030004246334600F088FF1B4A1C4B00F084FFD9
:1030400006460D46206901F003FA00F0C7F8184A59
:10305000184B00F079FF184A184B00F0A3FC3246D9
:103060002B4600F09FFC02460B460020494600F02C
:1030700055FD0022534601F001F900F061FCE060CB
:10308000BDE8F08700B0D1450000F03F001071406E
:103090007E1E3D1802C3893EABBBECB68F052A3FAE
:1030A000423A9FAEAC3C4A3F9C9037610495733ED8
:1030B000CDB479F386C12D3F4DDBBFB2D2A4443FDE
:1030C00070B50025044605600E4800680E49B1FB46
:1030D000F0F0C0EB0010800001F044FB0B4901F060
:1030E00055FB0B4901F048FAC4E901051421E160E0
:1030F0002574012161740620A57484F8350005202B
:1031000070BD00002C040040A08601006666E63F0A
:103110000000B44310B5144621B1012911D100209B
:10312000116810E00168094801F026FA4FF0FF31FC
:1031300001F0CDFC01F0E2FA05490968884201D9A5
:10314000032010BD21684863052010BD0050C3470F
:103150002C04004010B50268A2F18042B2F1C87F91
:1031600001D9032010BD096800224A6301680448A0
:1031700001F002FA01F0C2FA02490860052010BD10
:103180000050C3472C04004010B504460E480068A8
:1031900001F0E8FA01460D4801F0EEF90C4901F0A2
:1031A000F5FA0C4901F0E8F9A060616801F0BAFB9A
:1031B00001F0A4FA002800DA4042322801DD0420A0
:1031C00010BD062010BD00002C0400400050C34775
:1031D0000000D8420000B443FFF7D6BF2DE9F04D00
:1031E000C84A002490B0914205DA21F0004393428E
:1031F00001D805D120B110B0BDE8F04DFFF77EBE7B
:10320000B1F5801F1BDA53EA000209D0002911DA58
:103210000120FDF708F810B0BDE8F04DFFF771BED2
:103220000220FDF700F8FFF761FE10B081F00041C9
:10323000BDE8F08D6FF03504362201F01AFC04EB86
:103240002152C1F31308B049A2F2FF33414401F403
:10325000801282F07F6103EB225281F04051009294
:1032600041EA08010022A94B01F008F8044608F1E0
:103270000200A74EC0F313000D467E44032867D218
:10328000D6E90023204600F0A1FD1ED100980028B9
:1032900002BFD6E9000110B0BDE8F08D00F001FEDC
:1032A00007460C469B4A9C4B00F04EFE06460D46D8
:1032B0009A4A9B4B3846214600F046FE10B03246F3
:1032C0002B46BDE8F04D00F06DBB4FF05532954BED
:1032D0002046294600F038FE0022934B00F0C2FF42
:1032E00006460F4622462B461046194600F02CFE95
:1032F00032463B4600F028FE064600980F46F0B1E5
:1033000000F0CFFD80468A46824A834B00F01CFEC7
:1033100032463B4600F0A6FF22462B4600F0AEFFA9
:1033200005460C467D4A7E4B4046514600F00CFE59
:1033300010B02A462346BDE8F04D00F09FBF0B4673
:1033400010B0324620462946BDE8F04D00F096BF49
:1033500000224FF08043204600F024FB02460B463B
:103360002046294600F0DAFB06460F46009800F09A
:1033700098FDCDE9040132463B461046394600F03F
:10338000E3FD0C9069480C9A4044019009910B466A
:10339000104600F0D9FD8246024665488B46C8F1CA
:1033A00051080B4608F5D72803217844FFF748FD5C
:1033B00052465B4600F0C8FD0A905E480D915246A9
:1033C0005B4604217844FFF73BFD099B0C9A00F013
:1033D000BBFD844601980D9B40EA080860460A9AA6
:1033E00000F0E0FA83460891B8F1000F4EDD4FF08F
:1033F000FF322046294601F03CFB22462B4600F0D6
:10340000A3FD804600988A4660B3DDE90401414A85
:10341000414B00F099FD099100905A4640465146B3
:10342000089B00F0BFFA32463B4600F08DFD099B39
:10343000009A00F0B7FA4246534600F013FF2246C6
:103440002B4600F01BFF04460D46DDE90401334A1C
:10345000334B00F079FD10B022462B46BDE8F04D0D
:1034600000F00CBF5A464046089B00F09BFA3246DB
:103470003B4600F069FD4246534600F0F3FE10B0B3
:1034800022462B46BDE8F04D00F0ECBE009840B35C
:10349000DDE904011F4A204B00F056FD80468A46B4
:1034A0005A4620462946089B00F0E8FE32463B4635
:1034B00000F04AFD4246534600F0E0FE22462B460D
:1034C00000F0DCFE04460D46DDE90401134A144B0E
:1034D00000F03AFD10B022462B46BDE8F04D00F05A
:1034E000CDBE0B465A462046294600F0C7FE32465E
:1034F0003B4600F029FD10B022462B46BDE8F04DBA
:1035000000F0B0BE0000F07F645F09000000F03FF3
:1035100022190000763C7935EF39EA3D0000E0FEE3
:10352000422EE63F5555D53F0000E03F86EBF9FFC0
:10353000BA170000B817000008B5FDF737FAFFF713
:103540005DF9FEF771FE5248416941F001014161A8
:103550004069002200F00100009011460E20FDF7A6
:1035600093FA0E20FDF783FA002211460F20FDF793
:103570008BFA0F20FDF77BFA47484649002501608A
:103580004FF4E131C0E901150C21C560C0E90451D7
:103590008561C561FEF72CFD08B172B6FEE7FEF746
:1035A0008FFEFEF7ADFEFEF71FFFFEF7DDFE3A4889
:1035B00000214838FEF740FA374800219038FEF7DE
:1035C0003BFA354808219038FEF736FA3248A030E9
:1035D000FFF776FD31490020FEF7EEFF2E4C2F4914
:1035E000883420700120FEF7E7FF60702B4902202D
:1035F000FEF7E2FFA07029490320FEF7DDFFE0702F
:103600002648FFF747F84FF47A70FDF737F823495B
:103610000020FEF7D1FF207020490120FEF7CCFFEB
:1036200060701E490220FEF7C7FFA0701B490320EF
:10363000FEF7C2FFE07019492046FFF769FC174802
:1036400000F04AF9012220211548FDF79CF9A4F168
:10365000D00000684563012202211248FDF793F96A
:10366000A4F58C7001684D630068C563142204F1F1
:103670002B010948FEF743FBA4F1440000680168F0
:1036800021F004010160A4F5B070FDF777FFFEE7BB
:103690000010024000380140B801002088000020DE
:1036A000000C01400008014030B5C17C282911D12F
:1036B000017D7B290ED1C16800F112028A5C292AA2
:1036C00008D100F111028A5C7D2A03D1427D491F95
:1036D0008A4201D0012030BD0022817D144650294C
:1036E00017D008DC42291CD0442916D0492912D011
:1036F0004C290CD117E0522911D0532902D054295A
:1037000005D101E0002100E0052180F835100321FA
:103710001FE00221F9E70321F7E70421F5E707217C
:10372000F3E70821F1E70921EFE712B1012A0FD1F0
:1037300005E04318DB7C3A2B0AD1012208E043184C
:10374000DB7C7D2B0AD00519641C85F82730E4B298
:10375000491CC3688B42E8DC022030BD0222F7E737
:1037600010B504460846FEF759FF606000F0E2FF1E
:1037700000F06EFE0B4A0C4B00F0E6FB012201F05C
:1037800078F96FF0170201F074F900F0D9F8606170
:1037900000F05EFE054A064B00F0C0F900F0D0F8DC
:1037A000206110BDFCA9F1D24D620040F168E388B0
:1037B000B5F8E43E2DE9F0470446282084F82900B6
:1037C0007B2084F82A000A4694F836102D255426CA
:1037D000782084F82B1053274FF07D084FF02909EB
:1037E00019B1012909D0042919D104F82C5F667098
:1037F000A070E0702771607134E084F82C5084F878
:103800002D6084F82E0084F82F0084F8307084F83E
:10381000310084F8320084F8338084F83490DFF883
:1038200054A012F1FF4F02D213498A4202DD84F8FC
:103830002E0008E05146104600F0A8FF00F05EFFA1
:10384000010A84F82E1084F82F0004F82C5F5146EA
:103850006670277154F8240C00F098FF00F04EFFBA
:10386000010A6171A07184F8078084F80890BDE8AE
:10387000F08700000000C8420000964300F098BCAA
:1038800070B51546044611F0FF4F07D0104881422D
:1038900002DC11F1FF4F06D3032070BD0121204649
:1038A000FFF738FC12E0084661600A4900F064FE48
:1038B000206029462046FFF74DFC0328EDD02A461C
:1038C00000212046FFF726FC0328E6D0052070BD26
:1038D0000000C0409999993E38B504460820154D1E
:1038E0008DF80000002210212846FDF74CF86420D6
:1038F000FCF7C4FE012210212846FDF744F864209D
:10390000FCF7BCFE002210212846FDF73CF864209D
:10391000FCF7B4FE6423012269462046FDF7F4FB60
:103920006420FCF7ABFE012210212846FDF72BF89E
:1039300038BD0000000801400A460121FFF7EABB3C
:1039400021F00042A2F16052B2F5801F01F0004365
:1039500028BFD2F17F6C0BD95FEA001C43EAC20298
:1039600042EB507018BF704728BF20F0010070472D
:10397000B2F5801FBCBF184670474FEA410C1CF5DA
:10398000001F02D2084600F0C8BF70B500F086FBE9
:1039900000000089FFF7F6BF4FF00040A0F580005F
:1039A0007047000010B591EA030F48BF83F0004351
:1039B00000F16C84841A71EB030C05D2121943EBED
:1039C0000C03001B61EB0C01DFF824E14FEA1154FA
:1039D000A4EB135C1EEA430F18BF9EEA445F73D04A
:1039E00023EA0E03DCF1200E21EA045143F4801394
:1039F00032D322FA0CFE10EB0E0023FA0CFE41EB40
:103A00000E01CCF1200E03FA0EFE10EB0E0051F168
:103A10000001B1F5801FCCF1200E32D201EB045130
:103A200012FA0EF2BDE8104058BF7047401C38BF74
:103A30005FEA420218BF7047002814BF20F001005F
:103A400041F100014FEA410313F5001F38BF7047F1
:103A5000A1F1C04100F070BB012A43EB0302ACF1BD
:103A6000200CDCF11F0E32BF4FF0000E23FA0CF3D6
:103A700010EB030041EB0451B4EB115FD0D0A1EB8C
:103A8000045101F5801149085FEA300001EB04514F
:103A90000ED350F1000038BF12FA0EFE08D1BDE877
:103AA0001040C9E7401C38BF5FEA4202CAD1C3E7F1
:103AB000BDE810404FEA410313F5001F38BF7047BF
:103AC000A1F1C04100F038BB9EEA445F08D011EA82
:103AD0005E0FBDE8104004BF01F0004100207047B8
:103AE000BDE8104070B500F0D9FA00BF64FBBE3EDF
:103AF0000000E0FF02494FF0000000F088BF00BF67
:103B00000000F87F491058BFC1F140415B1058BF19
:103B1000C3F140438B42EFF3008070472DE9C04171
:103B200030B4DFF8A0C23CEA111418BF3CEA131409
:103B300000F0EC8081EA03051CEA111444EAD57414
:103B400018BF1CEA131500F0C780A4EB05044FF062
:103B5000004545EAC12145EAC32341EA505143EA01
:103B6000525304F17F74994204F500344FEAC020A7
:103B70004FEAC22208BF904200F09C804FEA1365D2
:103B80000FF24016765D4FEA134506FB05F7C7F1C5
:103B9000807706FB07F74FEAD737A7FB0368764223
:103BA000C8F58038A7FB06CE38BFA8F1010807FB8F
:103BB00008E64FF0000EA6FB028CE6FB03CEDCF11C
:103BC000000CCEF1004E38BFAEF1010EA6FB0C5832
:103BD0004FF000074FF00005E6FB0E87A1FB08C67B
:103BE000A0FB07CE16EB0E0645F10005E1FB0765CD
:103BF00015F1E04E7EBFA4F580345FEA46066D41C4
:103C000016F1800745F100054FEA17274FEA0666CF
:103C100047EA0567A6F1DE46B6F1805F4FEA152553
:103C20001FD9384624F0010C05EBC471BCF1FE6FBE
:103C300001EB0C1102D8F0BCBDE8008124425CBF4E
:103C400001F5801E9EEAC47F02D4F0BCBDE800816D
:103C5000244238D4F0BCA1F1C041BDE8004100F0DD
:103C60006BBA4FEAD22242EA43524FEAD323A7FB70
:103C700002864FEAD02040EA415007FB03661EEA65
:103C80000E0F4FEAD12105FB026658BFA6EB005686
:103C9000B6EB00564FEA520E4EEAC37E18EB0E0EFC
:103CA00056EB530EBDD518EB02085E417F1C55F153
:103CB0000005B6E74FF480154FF000074FF00006FF
:103CC0004FF00008ADE7F0BC4FF0000001F1C0413B
:103CD00001F00041BDE8008111EA0C1F0CEA131548
:103CE00000D00CE013EA0C1F00F025804FF000001C
:103CF000F0BC81EA030101F00041BDE80081F0BCA5
:103D0000BDE8004181EA030100F016BAF0BCBDE84D
:103D1000004170B500F0C2F9097EFC3E00F007B822
:103D200081EA03014FF0000001F00041704781EA91
:103D3000030100F001BAF0BCBDE800414FF0000003
:103D400021497047FFFDFBF9F7F5F4F2F0EEEDEBDA
:103D5000E9E8E6E4E3E1E0DEDDDBDAD8D7D5D4D389
:103D6000D1D0CFCDCCCBCAC8C7C6C5C4C2C1C0BFD5
:103D7000BEBDBCBBBAB9B8B7B6B5B4B3B2B1B0AFDB
:103D8000AEADACABAAA9A8A8A7A6A5A4A3A3A2A1BF
:103D9000A09F9F9E9D9C9C9B9A999998979796957A
:103DA00095949393929191908F8F8E8E8D8C8C8B16
:103DB0008B8A89898888878786858584848383829E
:103DC000828181800000FF070000F87F51EA030C28
:103DD00017D41CF5801F58BFBCF5801F00F106806A
:103DE000994218BF704708BF9042704707D711F536
:103DF000801F58BF13F5801F19D49942704789421C
:103E000070471CF5801F08D5BCF5801FF7D58B4285
:103E100018BF704708BF824270474FF4001C1CEB6C
:103E2000410F38BF1CEB430F01D28B42704770B576
:103E300000F034F9922449004FF000514FF08053C4
:103E4000FFF760BE4FEA41034FEA5353A3F5806387
:103E5000D3F11E03C8BFD3F1210C0CDD4FF000429B
:103E600042EAC12242EA505232FA03FC8CEAE17C77
:103E7000ACEBE1707047102BC4BF0020704703F516
:103E8000787CBCF1FF3F04D06FF0004282EA210051
:103E9000704770B500F002F9499224800020704705
:103EA000F2E710F0004248BF4042B0FA80F310FA47
:103EB00003F10AD0C3F11D0303F580634FEA4150BB
:103EC00002EB035202EBD12170474FF00000704724
:103ED00051EA030C17D41CF5801F58BFBCF5801F96
:103EE00000F10680994218BF704708BF90427047A2
:103EF00007D711F5801F58BF13F5801F19D49942B9
:103F00007047894270471CF5801F08D5BCF5801F9B
:103F1000F7D58B4218BF704708BF824270474FF4F5
:103F2000001C1CEB410F38BF1CEB430F01D28B422E
:103F3000704770B500F0B2F8922449004FF000517C
:103F40004FF08053FFF7DEBDDFF848C170B51CEAC3
:103F5000111E1EBF1CEA13159EEA0C0F95EA0C0FEA
:103F600000F06F8081EA030423EA4C134EEAD47E0A
:103F700021EA4C1141F4801143F48013AE44A1FBBB
:103F8000024CA0FB0365AEF17F7E361955EB0C05A4
:103F9000A1FB034C4CF10003A0FB021C16EB0C062A
:103FA000654153F10003094218BF46F0010613F4BE
:103FB000007F0BD14FEA03314FEA0530340341EA69
:103FC000155140EA16506FF003020AE04FEAC32190
:103FD0004FEAC520F40241EA555140EA56506FF0CD
:103FE000020202EB2E4201EB025585EACE710AD0A5
:103FF0005FEA440C18BF24F0004450F1000041F186
:10400000000120EAD47040F2FE7C624500D270BD0F
:10401000A84214BF4FF080444FF04044002E08BF28
:104020000024BEF1806FA8BFA1F1C041BDE870407F
:1040300080F282804FF0000001F1C04101F00041A8
:1040400070479EEA0C0F0CEA131518BF95EA0C0F87
:1040500006D04FF0000081EA030E0EF0004170BD63
:1040600000F01CF88900013E00F007B800F009B824
:104070004FEA430C5FEA5C5C08D081EA030100F080
:104080005BB84FEA410C5FEA5C5CF6D14FF0000090
:10409000014970470000FF070000F87F0EF1020E93
:1040A0002EF0030E5EF8046B364205D4012A43EB72
:1040B000030515F5001F12D8012841EB010C1CF572
:1040C000001F0CD80ED14FEAD17C15F5001F0CEB68
:1040D0004C0C0CF1020C08BF4CEBD37C04E04FF00D
:1040E000080C01E04FEAD37C0CEB4C0526FA05F6F0
:1040F00006F00706B6F1040C06D20EEB860CBDE8FE
:1041000070404CF0010C6047DFE80CF0090B020234
:104110004FF000414FF00000A1F5002170BD19469D
:104120001046012851EB010418BFD4F5001484BFD8
:10413000002001F0004170BD0808A0F500114FEA11
:104140003101704753EA010C17D41CF5801F58BF8A
:10415000BCF5801F00F106808B4218BF704708BF76
:104160008242704707D713F5801F58BF11F5801F93
:1041700019D48B4270479B4270471CF5801F08D5AD
:10418000BCF5801FF7D5994218BF704708BF904211
:1041900070474FF4001C1CEB430F38BF1CEB410F62
:1041A00001D2994270470FB40CBC03BCFFF7C1BEEB
:1041B0005FEA410C5FEA5C5CACF580635B1C39D460
:1041C000D3F1340240F34580B2F1200314DA4FF00A
:1041D000010C0CFA02FCACF101030340B3EB5C02EE
:1041E00020EA030008BF10EA0C0F98BF704710EBDD
:1041F0000C0041F1000170470AD0C3F1200201FA1E
:1042000002FC012821FA03F101FA03F14CF100004C
:104210004FF0010C0CFA03FCACF10103B0F1004FBC
:1042200021EA030108BF11EA0C0F4FF0000088BF1C
:1042300061447047B3F1FF3F28BF50EAC12C01F041
:1042400000414FF0000084BF41F07C5141F4700107
:104250007047B3F5806FB8BF704770B5FFF71EFFAA
:1042600040DBB6BE91EA030F10B581F000413FF587
:10427000A1AB83F0004300F009B8000010B591EA4B
:10428000030F48BF83F000433FF594AB841A71EBF2
:10429000030C07D212198CF0004C43EB0C03001BEB
:1042A00061EB0C01DFF8A4E14FEA1154A4EB135CBD
:1042B0001EEA430F18BF9EEA445F00F0B08023EA75
:1042C0006E03524221EA0451C3EB6E0338BF5B1EFA
:1042D000DCF1200E25D322FA0CFE10EB0E0043FA7F
:1042E0000CFE41EB0E01CCF1200E03FA0EFE10EB9A
:1042F0000E0051F10001CCF1200E29D412FA0EF279
:1043000001EB0451BDE8104058BF7047401C1CBF72
:10431000B2F1004F704700280CBF491C20F001008B
:10432000704712EB020E43EB030218BF4FF0010E71
:104330004EEA4202ACF1200CDCF11E0E54D943FAD5
:104340000CFE10EB0E0051F1FF31CCF11E0ED5D555
:104350000EF1010E12FA0EFE404141EB010101EB9C
:10436000445C5FEA5C5C10D910EBDE7001EB045139
:1043700038BFBEF1004FBDE8104018BF704700289D
:104380000CBF491C20F00100704730D24FEAD42CFA
:1043900011F5001124F400641BD0B1FA81F20B3A3C
:1043A000A41AA41ED2F12003914030FA03F319435A
:1043B000904001EBCC71002C01EB0451BDE81040A2
:1043C000A8BF704701F1C0414FF0000001F000416B
:1043D0007047B0FA80F310FA03F100D110BDE41A6F
:1043E000173C4805C90AE4E701EB045110BD491028
:1043F00001EB0451BDE810404FEA300002E04FF0FD
:10440000000170474A0008BF0042F8D0B2F5001F13
:1044100028BF704701F000414FF0000070479EEA4E
:10442000445F07D011EA5E0FBDE8104004BF0021D1
:1044300000207047BDE8104070B5FFF72FFE00BFA9
:1044400040DFF63E83F00041104670470000E0FF79
:1044500043004FEAD30C4FEA3C0C43401FBF4007D8
:104460000CF1605113F0FE4F70471CF0006F03D148
:1044700000200CF0004170470CF0004343EA5070FC
:1044800010B540EACC0000F002FA00BF0000009234
:104490004FEA0001FFF750BE4FF000414FF000001F
:1044A000A1F500217047000090EA010F48BF81F09C
:1044B000004100F13E82421A3CBF801A89184FEA3F
:1044C000D0524FF07F4C1CEA410FA2EBD15318BFE2
:1044D0009CEA026F00F03B804FF0004C4CEA002059
:1044E0004CEA012121FA03FC10EB0C0C1ED202F164
:1044F000FF325FEA1C2040EBC25038BF70471CF00F
:104500007F0F4FEA400C18BFBCF17F4F38BF704798
:10451000C3F12003994008BF20F00100BCF17F4F98
:1045200038BF7047A0F1C04000F0F7B94FEA3C0037
:10453000000A40EBC25028BF1CF0FF0F4FEA400CAE
:10454000E6D018BFBCF17F4F38BF7047EAE79CEA5E
:10455000026F05D010EA5C0F08BF00F00040704702
:1045600010B500F094F900BF64FBBE3E014800F0B6
:104570004EBA00BF0000C07F4FF47F0C1CEAD0127F
:104580001EBF1CEAD11392EA0C0F93EA0C0F00F045
:10459000858090EA010F48BF42F4807240F4000C1D
:1045A00041F400002CF07F4120F07F4000B58142B3
:1045B000A2EB03020FF2081CACEB504EC0F100005E
:1045C0009EF800E04FEA4E0E00FB0EFC38BF49009B
:1045D0004FEA2C1C02F5FA020CFB0EF34FEACE1E3A
:1045E0004FEA112C4FEAC1210EEB635E42EB2242EF
:1045F0000EFB0CFC4FEA1C5300FB03114FEA112C7D
:104600004FEA01310EFB0CFC4FEADC4C00FB0C11B5
:10461000C14228BF09184CEB03335DF804EB10EBE3
:10462000410143EBC250B2F57C0F38BF704729D52A
:1046300012F0F00F1CBF00F1C04000F000407047C6
:10464000008182838485868788898B8C8D8E8F916B
:104650009293959697999A9C9D9FA0A2A3A5A7A88F
:10466000AAACAEB0B2B3B5B7B9BCBEC0C2C5C7C9BB
:10467000CCCED1D4D7D9DCDFE2E6E9ECF0F3F7FA1F
:10468000FE0000004FEA400C0CF1807CBCF17E4F34
:1046900028BF7047B0F1C04000F03FB990EA010F69
:1046A0000CEAD11348BF42F48072624538BF6345BB
:1046B00007D213F47F0F16D080EA010000F000400B
:1046C000704710B500F0E3F8097EFC3E00F005B835
:1046D00080EA010000F00040704780EA010000F02D
:1046E000004000F01AB912F47F0F04BF024870476F
:1046F00080EA010000F011B90000C07F41000B0EFC
:10470000D3F19E0208D950F400034FEA032323FAA1
:1047100002F048BF4042704710B500F0B8F800BF43
:1047200049922480002070476FF0004282EA200006
:104730007047000010F0004148BF4042B0FA80F3DB
:1047400010FA03F2C3F19D030BD051EAC35101EB00
:104750001220530638BF704700F1010008BF20F057
:1047600001007047B0FA80F310FA03F2C3F19D0321
:104770000AD0D90501EB1220530638BF704700F16B
:10478000010008BF20F00100704700004FF47F0CCB
:104790001CEAD0121EBF1CEAD11392EA0C0F93EA56
:1047A0000C0F00F0478090EA010F48BF42F480727E
:1047B0004FF0004C4CEA00204CEA012102EB0302CE
:1047C000A0FB0113A2F50002002918BF43F001036A
:1047D0005B0028BF4FEA330342EB22425FEA132C0F
:1047E0004CEBC2502EBFBCEB436FB2F57C0F704751
:1047F0004FEA036CBCF1004F08BF20F00100B2F596
:104800007C0F38BF70470BD582F0FF0212F5803F56
:10481000C8BF704700F1C040D8BF00F000407047EB
:1048200000F5000C5FEA4C0C48BF7047B0F1C04087
:1048300000F073B890EA010F0CEAD11348BF42F4BC
:104840008072624538BF634504D280EA010000F0FF
:104850000040704710B500F01AF800BF8900013E13
:1048600000F007B800F009B85FEA410C5FEA1C6C81
:1048700008D080EA010000F050B85FEA400C5FEA1F
:104880001C6CF6D14FF00040A0F5800070470EF18F
:10489000020E2EF0030E5EF8044B244204D44FEABD
:1048A0004102B2F17F4F11D84FEA4003B3F17F4F7D
:1048B0000CD80ED14FEAD07CB2F17F4F0CEB4C0CF0
:1048C0000CF1020C08BF4CEBD17C04E04FF0080C5B
:1048D00001E04FEAD17C0CEB4C0324FA03F404F022
:1048E0000704B4F1040C06D20EEB840CBDE81040B2
:1048F0004CF0010C6047DFE80CF0070802024FF0B3
:104900000040A0F5800010BD0846420018BFD2F15B
:10491000807288BF00F0004010BDFF2141EAD050F6
:10492000C005704790EA010F48BF81F000413FF594
:10493000C2AD421A04D882F00042A0EB020011443A
:104940004FEAD0524FF07F4C1CEA410FA2EBD153FB
:1049500018BF9CEA026F4AD04FF0004C4CEA00208E
:104960004CEA012121FA03FCB0EB0C0C0FD412F03D
:10497000FE0F36D05FEA4C001DD5001240EBC2504E
:1049800038BF70471CF03F0F18BF70470BE0A2F113
:1049900001025FEA1C2040EBC25038BF70471CF098
:1049A0007F0F18BF7047C3F12003994014BF401E0A
:1049B00020F00100704780084FEA122308BF7047BB
:1049C000B0FA80FCA2EB0C02CCF1280C60FA0CF0DF
:1049D00093EA122F04BF00EBC25070474FEAC37036
:1049E0007047130A5FEADC1008BF7047F6E79CEADD
:1049F000026F04D010EA5C0F08BF0020704710B5AA
:104A0000FFF745FF40DFF63E81F0004070470CF0B5
:104A10000F03092B08BF082000F07F800A2B0BD062
:104A2000082B18BF704708BF1CF0400F0AD04FF08A
:104A300000004FF0000170471CF0400F18BF4FF00E
:104A4000004070471CF0100F08D020F0704300F0B9
:104A50007F4242EAD3014FEA4370704700F0604062
:104A600021F07F4242EA000201F07F4040EA72708A
:104A700070474FF0FF0C4CF4E06C1CEA11531CBF64
:104A80009CEA030C9445C2BFDA4201EB0251704725
:104A9000002B0DD0BCF1000F0FD0002A01F0004117
:104AA000A4BF41F0E04141F07F614FF0000070474A
:104AB00001F000414FF00000704750EA01334FF021
:104AC0009B0C18BF4CF0806C7FF414A870474FF01B
:104AD000FF0212EAD0521CBF92F0FF038B42C2BF0A
:104AE000D14200EBC1507047002A0AD0002B0BD0F6
:104AF000002900F00040A4BF40F0FE4040F4000058
:104B0000704700F00040704743024FF00B0C18BF95
:104B10004CF0806C7FF42AAD70471CF4801F11D0DC
:104B20001CF4E02F03D06FEACC31490070474FF0FE
:104B30004050EFF3008222F0704242EA000282F31A
:104B4000008870474FF00000704700000000000030
:104B5000000001020304060708090000000001022A
:104B6000030400000000000004FA97999999D93FC6
:104B7000AF788E1DC571CC3F9FC678D0099AC33FD0
:104B8000935555555555E53F599322942449D23FA5
:104B9000DE03CB966446C73F44523EDF12F1C23F6C
:104BA0000000000000000000C84B000800000020CA
:104BB0008800000028010008504C000888000020F0
:104BC000B008000044010008000000000000484355
:104BD00000000000000000000000000000805640BF
:104BE0000000000000002E40C3F5285C8FC2C53FC6
:104BF000EE7C3F355EBAC93F0000000000000000B7
:104C000000000000000000000000000000000000A4
:104C10000000000000000000000000000000000094
:104C20000000000000000000000000000000000084
:104C30000000000000000000000000000000000074
:104C40000100000010000000000000000024F4003B
:04000005080000ED02
:00000001FF
